:100000000C9472000C9486000C9486000C9486006C
:100010000C9486000C9486000C9486000C94860048
:100020000C9486000C9486000C9486000C94860038
:100030000C9486000C9486000C9486000C94860028
:100040000C9486000C9486000C9486000C94860018
:100050000C9486000C9486000C9486000C94880006
:100060000C9486000C9486000C9486000C948600F8
:100070000C9486000C9486000C9486000C948600E8
:100080000C9486000C9486000C9486000C948600D8
:100090000C9486000C9486000C9486000C948600C8
:1000A0000C9486000C9486000C9486000C948600B8
:1000B0000C9486000C9486000C9486000C948600A8
:1000C0000C9486000C9486000C9486000C94860098
:1000D0000C9486000C9486000C9486000C94860088
:1000E0000C94860011241FBECFEFD1E2DEBFCDBF3E
:1000F00000E00CBF22E0A0E0B2E001C01D92AB30F6
:10010000B207E1F70E94D2000C9487010C94000022
:100110001F920F920FB60F9211242F933F938F933C
:100120009F93AF93BF938091070290910802A09193
:100130000902B0910A023091060223E0230F2D3705
:1001400058F50196A11DB11D209306028093070268
:1001500090930802A0930902B0930A0280910202D0
:1001600090910302A0910402B09105020196A11D95
:10017000B11D8093020290930302A0930402B093F6
:100180000502BF91AF919F918F913F912F910F9059
:100190000FBE0F901F90189526E8230F0296A11D01
:1001A000B11DD2CF789484B5826084BD84B581605E
:1001B00084BD85B5826085BD85B5816085BD809132
:1001C0006E00816080936E001092810080918100AA
:1001D00082608093810080918100816080938100A2
:1001E000809180008160809380008091B100846064
:1001F0008093B1008091B00081608093B0008091C5
:100200009100826080939100809191008160809341
:100210009100809190008160809390008091A10076
:1002200082608093A1008091A10081608093A100F1
:100230008091A00081608093A00080912101826064
:10024000809321018091210181608093210180911F
:10025000200181608093200180917A0084608093E6
:100260007A0080917A00826080937A0080917A008F
:10027000816080937A0080917A00806880937A0010
:100280001092C10011B88FEF80BB80930101CAE0CA
:10029000D0E000E010E080B190E0BE010E945F017C
:1002A000909301028093000261BB809100028093D1
:1002B00002010115110579F30E940000ECCF97FBB4
:1002C000072E16F4009407D077FD09D00E94730121
:1002D00007FC05D03EF4909581959F4F0895709549
:1002E00061957F4F0895AA1BBB1B51E107C0AA1F50
:1002F000BB1FA617B70710F0A61BB70B881F991FC7
:100300005A95A9F780959095BC01CD010895F89470
:02031000FFCF1D
:00000001FF
